{
  "contractName": "SupplyChain",
  "abi": [
    {
      "inputs": [],
      "payable": true,
      "stateMutability": "payable",
      "type": "constructor"
    },
    {
      "anonymous": false,
      "inputs": [
        {
          "indexed": false,
          "name": "sn",
          "type": "uint256"
        }
      ],
      "name": "Removed",
      "type": "event"
    },
    {
      "anonymous": false,
      "inputs": [
        {
          "indexed": false,
          "name": "sn",
          "type": "uint256"
        }
      ],
      "name": "CleanInspect",
      "type": "event"
    },
    {
      "anonymous": false,
      "inputs": [
        {
          "indexed": false,
          "name": "sn",
          "type": "uint256"
        }
      ],
      "name": "Shipped",
      "type": "event"
    },
    {
      "anonymous": false,
      "inputs": [
        {
          "indexed": false,
          "name": "sn",
          "type": "uint256"
        }
      ],
      "name": "Received",
      "type": "event"
    },
    {
      "anonymous": false,
      "inputs": [
        {
          "indexed": false,
          "name": "sn",
          "type": "uint256"
        }
      ],
      "name": "Inspected",
      "type": "event"
    },
    {
      "anonymous": false,
      "inputs": [
        {
          "indexed": false,
          "name": "sn",
          "type": "uint256"
        }
      ],
      "name": "Repaired",
      "type": "event"
    },
    {
      "anonymous": false,
      "inputs": [
        {
          "indexed": false,
          "name": "sn",
          "type": "uint256"
        }
      ],
      "name": "Purchased",
      "type": "event"
    },
    {
      "constant": false,
      "inputs": [],
      "name": "kill",
      "outputs": [],
      "payable": false,
      "stateMutability": "nonpayable",
      "type": "function"
    },
    {
      "constant": false,
      "inputs": [
        {
          "name": "_sn",
          "type": "uint256"
        },
        {
          "name": "_originShopID",
          "type": "address"
        },
        {
          "name": "_originShopName",
          "type": "string"
        },
        {
          "name": "_originShopInformation",
          "type": "string"
        },
        {
          "name": "_originShopLatitude",
          "type": "string"
        },
        {
          "name": "_originShopLongitude",
          "type": "string"
        },
        {
          "name": "_productNotes",
          "type": "string"
        }
      ],
      "name": "removeItem",
      "outputs": [],
      "payable": false,
      "stateMutability": "nonpayable",
      "type": "function"
    },
    {
      "constant": false,
      "inputs": [
        {
          "name": "_sn",
          "type": "uint256"
        }
      ],
      "name": "cleanInspectItem",
      "outputs": [],
      "payable": false,
      "stateMutability": "nonpayable",
      "type": "function"
    },
    {
      "constant": false,
      "inputs": [
        {
          "name": "_sn",
          "type": "uint256"
        }
      ],
      "name": "shipItem",
      "outputs": [],
      "payable": false,
      "stateMutability": "nonpayable",
      "type": "function"
    },
    {
      "constant": false,
      "inputs": [
        {
          "name": "_sn",
          "type": "uint256"
        },
        {
          "name": "_price",
          "type": "uint256"
        }
      ],
      "name": "receiveItem",
      "outputs": [],
      "payable": false,
      "stateMutability": "nonpayable",
      "type": "function"
    },
    {
      "constant": false,
      "inputs": [
        {
          "name": "_sn",
          "type": "uint256"
        },
        {
          "name": "_price",
          "type": "uint256"
        }
      ],
      "name": "inspectItem",
      "outputs": [],
      "payable": false,
      "stateMutability": "nonpayable",
      "type": "function"
    },
    {
      "constant": false,
      "inputs": [
        {
          "name": "_sn",
          "type": "uint256"
        },
        {
          "name": "_price",
          "type": "uint256"
        }
      ],
      "name": "repairItem",
      "outputs": [],
      "payable": false,
      "stateMutability": "nonpayable",
      "type": "function"
    },
    {
      "constant": false,
      "inputs": [
        {
          "name": "_sn",
          "type": "uint256"
        }
      ],
      "name": "buyItem",
      "outputs": [],
      "payable": true,
      "stateMutability": "payable",
      "type": "function"
    },
    {
      "constant": true,
      "inputs": [
        {
          "name": "_sn",
          "type": "uint256"
        }
      ],
      "name": "fetchItemBufferOne",
      "outputs": [
        {
          "name": "itemSKU",
          "type": "uint256"
        },
        {
          "name": "itemSN",
          "type": "uint256"
        },
        {
          "name": "ownerID",
          "type": "address"
        },
        {
          "name": "originShopID",
          "type": "address"
        },
        {
          "name": "originShopName",
          "type": "string"
        },
        {
          "name": "originShopInformation",
          "type": "string"
        },
        {
          "name": "originShopLatitude",
          "type": "string"
        },
        {
          "name": "originShopLongitude",
          "type": "string"
        },
        {
          "name": "productNotes",
          "type": "string"
        }
      ],
      "payable": false,
      "stateMutability": "view",
      "type": "function"
    },
    {
      "constant": true,
      "inputs": [
        {
          "name": "_sn",
          "type": "uint256"
        }
      ],
      "name": "fetchItemBufferTwo",
      "outputs": [
        {
          "name": "itemSKU",
          "type": "uint256"
        },
        {
          "name": "itemSN",
          "type": "uint256"
        },
        {
          "name": "productID",
          "type": "uint256"
        },
        {
          "name": "productNotes",
          "type": "string"
        },
        {
          "name": "productPrice",
          "type": "uint256"
        },
        {
          "name": "itemState",
          "type": "uint8"
        },
        {
          "name": "storeID",
          "type": "address"
        },
        {
          "name": "buyerID",
          "type": "address"
        }
      ],
      "payable": false,
      "stateMutability": "view",
      "type": "function"
    }
  ],
  "bytecode": "0x6080604052336000806101000a81548173ffffffffffffffffffffffffffffffffffffffff021916908373ffffffffffffffffffffffffffffffffffffffff160217905550600160028190555060018081905550611c83806100626000396000f3006080604052600436106100a4576000357c0100000000000000000000000000000000000000000000000000000000900463ffffffff1680630f1a6bb6146100a957806341c0e1b5146100d657806359cc8c67146100ed57806366225ff91461012457806377c4591314610261578063b50f60e71461052b578063d091e19d14610562578063dae1d27514610599578063e7fb74c714610744578063f61c899a14610764575b600080fd5b3480156100b557600080fd5b506100d460048036038101908080359060200190929190505050610791565b005b3480156100e257600080fd5b506100eb6108bf565b005b3480156100f957600080fd5b506101226004803603810190808035906020019092919080359060200190929190505050610950565b005b34801561013057600080fd5b5061014f60048036038101908080359060200190929190505050610a7f565b604051808981526020018881526020018781526020018060200186815260200185600681111561017b57fe5b60ff1681526020018473ffffffffffffffffffffffffffffffffffffffff1673ffffffffffffffffffffffffffffffffffffffff1681526020018373ffffffffffffffffffffffffffffffffffffffff1673ffffffffffffffffffffffffffffffffffffffff168152602001828103825287818151815260200191508051906020019080838360005b8381101561021f578082015181840152602081019050610204565b50505050905090810190601f16801561024c5780820380516001836020036101000a031916815260200191505b50995050505050505050505060405180910390f35b34801561026d57600080fd5b5061028c60048036038101908080359060200190929190505050610c5c565b604051808a81526020018981526020018873ffffffffffffffffffffffffffffffffffffffff1673ffffffffffffffffffffffffffffffffffffffff1681526020018773ffffffffffffffffffffffffffffffffffffffff1673ffffffffffffffffffffffffffffffffffffffff168152602001806020018060200180602001806020018060200186810386528b818151815260200191508051906020019080838360005b8381101561034c578082015181840152602081019050610331565b50505050905090810190601f1680156103795780820380516001836020036101000a031916815260200191505b5086810385528a818151815260200191508051906020019080838360005b838110156103b2578082015181840152602081019050610397565b50505050905090810190601f1680156103df5780820380516001836020036101000a031916815260200191505b50868103845289818151815260200191508051906020019080838360005b838110156104185780820151818401526020810190506103fd565b50505050905090810190601f1680156104455780820380516001836020036101000a031916815260200191505b50868103835288818151815260200191508051906020019080838360005b8381101561047e578082015181840152602081019050610463565b50505050905090810190601f1680156104ab5780820380516001836020036101000a031916815260200191505b50868103825287818151815260200191508051906020019080838360005b838110156104e45780820151818401526020810190506104c9565b50505050905090810190601f1680156105115780820380516001836020036101000a031916815260200191505b509e50505050505050505050505050505060405180910390f35b34801561053757600080fd5b5061056060048036038101908080359060200190929190803590602001909291905050506110ab565b005b34801561056e57600080fd5b5061059760048036038101908080359060200190929190803590602001909291905050506111d9565b005b3480156105a557600080fd5b5061074260048036038101908080359060200190929190803573ffffffffffffffffffffffffffffffffffffffff169060200190929190803590602001908201803590602001908080601f0160208091040260200160405190810160405280939291908181526020018383808284378201915050505050509192919290803590602001908201803590602001908080601f0160208091040260200160405190810160405280939291908181526020018383808284378201915050505050509192919290803590602001908201803590602001908080601f0160208091040260200160405190810160405280939291908181526020018383808284378201915050505050509192919290803590602001908201803590602001908080601f0160208091040260200160405190810160405280939291908181526020018383808284378201915050505050509192919290803590602001908201803590602001908080601f0160208091040260200160405190810160405280939291908181526020018383808284378201915050505050509192919290505050611308565b005b610762600480360381019080803590602001909291905050506116ef565b005b34801561077057600080fd5b5061078f600480360381019080803590602001909291905050506119b1565b005b806000600681111561079f57fe5b60036000838152602001908152602001600020600b0160009054906101000a900460ff1660068111156107ce57fe5b1415156107da57600080fd5b6003600083815260200190815260200160002060030160009054906101000a900473ffffffffffffffffffffffffffffffffffffffff168073ffffffffffffffffffffffffffffffffffffffff163373ffffffffffffffffffffffffffffffffffffffff1614151561084b57600080fd5b600160036000858152602001908152602001600020600b0160006101000a81548160ff0219169083600681111561087e57fe5b02179055507f9deb3ac1c705ed1dcd649b755d2167b29c2cc17de4f0f93c598092708230ef90836040518082815260200191505060405180910390a1505050565b6000809054906101000a900473ffffffffffffffffffffffffffffffffffffffff1673ffffffffffffffffffffffffffffffffffffffff163373ffffffffffffffffffffffffffffffffffffffff16141561094e576000809054906101000a900473ffffffffffffffffffffffffffffffffffffffff1673ffffffffffffffffffffffffffffffffffffffff16ff5b565b816001600681111561095e57fe5b60036000838152602001908152602001600020600b0160009054906101000a900460ff16600681111561098d57fe5b14151561099957600080fd5b6003600084815260200190815260200160002060030160009054906101000a900473ffffffffffffffffffffffffffffffffffffffff168073ffffffffffffffffffffffffffffffffffffffff163373ffffffffffffffffffffffffffffffffffffffff16141515610a0a57600080fd5b600560036000868152602001908152602001600020600b0160006101000a81548160ff02191690836006811115610a3d57fe5b02179055507f867455f50213547ece031dd4e809a840833e28b077e95c01eb6180d2214baf91846040518082815260200191505060405180910390a150505050565b60008060006060600080600080600360008a8152602001908152602001600020600001549750600360008a8152602001908152602001600020600101549650600360008a8152602001908152602001600020600801549550600360008a81526020019081526020016000206009018054600181600116156101000203166002900480601f016020809104026020016040519081016040528092919081815260200182805460018160011615610100020316600290048015610b815780601f10610b5657610100808354040283529160200191610b81565b820191906000526020600020905b815481529060010190602001808311610b6457829003601f168201915b50505050509450600360008a8152602001908152602001600020600a01549350600360008a8152602001908152602001600020600b0160009054906101000a900460ff169250600360008a8152602001908152602001600020600b0160019054906101000a900473ffffffffffffffffffffffffffffffffffffffff169150600360008a8152602001908152602001600020600c0160009054906101000a900473ffffffffffffffffffffffffffffffffffffffff169050878787878787878797509750975097509750975097509750919395975091939597565b6000806000806060806060806060600360008b8152602001908152602001600020600001549850600360008b8152602001908152602001600020600101549750600360008b815260200190815260200160002060020160009054906101000a900473ffffffffffffffffffffffffffffffffffffffff169650600360008b815260200190815260200160002060030160009054906101000a900473ffffffffffffffffffffffffffffffffffffffff169550600360008b81526020019081526020016000206004018054600181600116156101000203166002900480601f016020809104026020016040519081016040528092919081815260200182805460018160011615610100020316600290048015610db85780601f10610d8d57610100808354040283529160200191610db8565b820191906000526020600020905b815481529060010190602001808311610d9b57829003601f168201915b50505050509450600360008b81526020019081526020016000206005018054600181600116156101000203166002900480601f016020809104026020016040519081016040528092919081815260200182805460018160011615610100020316600290048015610e695780601f10610e3e57610100808354040283529160200191610e69565b820191906000526020600020905b815481529060010190602001808311610e4c57829003601f168201915b50505050509350600360008b81526020019081526020016000206006018054600181600116156101000203166002900480601f016020809104026020016040519081016040528092919081815260200182805460018160011615610100020316600290048015610f1a5780601f10610eef57610100808354040283529160200191610f1a565b820191906000526020600020905b815481529060010190602001808311610efd57829003601f168201915b50505050509250600360008b81526020019081526020016000206007018054600181600116156101000203166002900480601f016020809104026020016040519081016040528092919081815260200182805460018160011615610100020316600290048015610fcb5780601f10610fa057610100808354040283529160200191610fcb565b820191906000526020600020905b815481529060010190602001808311610fae57829003601f168201915b50505050509150600360008b81526020019081526020016000206009018054600181600116156101000203166002900480601f01602080910402602001604051908101604052809291908181526020018280546001816001161561010002031660029004801561107c5780601f106110515761010080835404028352916020019161107c565b820191906000526020600020905b81548152906001019060200180831161105f57829003601f168201915b505050505090508888888888888888889850985098509850985098509850985098509193959799909294969850565b81600260068111156110b957fe5b60036000838152602001908152602001600020600b0160009054906101000a900460ff1660068111156110e857fe5b1415156110f457600080fd5b6003600084815260200190815260200160002060030160009054906101000a900473ffffffffffffffffffffffffffffffffffffffff168073ffffffffffffffffffffffffffffffffffffffff163373ffffffffffffffffffffffffffffffffffffffff1614151561116557600080fd5b6003806000868152602001908152602001600020600b0160006101000a81548160ff0219169083600681111561119757fe5b02179055507fa8142743f8f70a4c26f3691cf4ed59718381fb2f18070ec52be1f1022d855557846040518082815260200191505060405180910390a150505050565b81600360068111156111e757fe5b60036000838152602001908152602001600020600b0160009054906101000a900460ff16600681111561121657fe5b14151561122257600080fd5b6003600084815260200190815260200160002060030160009054906101000a900473ffffffffffffffffffffffffffffffffffffffff168073ffffffffffffffffffffffffffffffffffffffff163373ffffffffffffffffffffffffffffffffffffffff1614151561129357600080fd5b600460036000868152602001908152602001600020600b0160006101000a81548160ff021916908360068111156112c657fe5b02179055507f98995183ba0a4acedc1d558066f0c9390eaeebfb3746082a8e60c0e3844724cb846040518082815260200191505060405180910390a150505050565b611310611adf565b868073ffffffffffffffffffffffffffffffffffffffff163373ffffffffffffffffffffffffffffffffffffffff1614151561134b57600080fd5b6000600360008b8152602001908152602001600020600101541415156113d9576040517f08c379a00000000000000000000000000000000000000000000000000000000081526004018080602001828103825260118152602001807f534e20616c72656164792065786973747300000000000000000000000000000081525060200191505060405180910390fd5b6002548260000181815250508882602001818152505033826060019073ffffffffffffffffffffffffffffffffffffffff16908173ffffffffffffffffffffffffffffffffffffffff1681525050868260800181905250858260a00181905250848260c00181905250838260e001819052508882610100018181525050828261012001819052506000826101600190600681111561147357fe5b9081600681111561148057fe5b8152505060016002540160028190555081600360008b8152602001908152602001600020600082015181600001556020820151816001015560408201518160020160006101000a81548173ffffffffffffffffffffffffffffffffffffffff021916908373ffffffffffffffffffffffffffffffffffffffff16021790555060608201518160030160006101000a81548173ffffffffffffffffffffffffffffffffffffffff021916908373ffffffffffffffffffffffffffffffffffffffff1602179055506080820151816004019080519060200190611562929190611bb2565b5060a082015181600501908051906020019061157f929190611bb2565b5060c082015181600601908051906020019061159c929190611bb2565b5060e08201518160070190805190602001906115b9929190611bb2565b5061010082015181600801556101208201518160090190805190602001906115e2929190611bb2565b5061014082015181600a015561016082015181600b0160006101000a81548160ff0219169083600681111561161357fe5b021790555061018082015181600b0160016101000a81548173ffffffffffffffffffffffffffffffffffffffff021916908373ffffffffffffffffffffffffffffffffffffffff1602179055506101a082015181600c0160006101000a81548173ffffffffffffffffffffffffffffffffffffffff021916908373ffffffffffffffffffffffffffffffffffffffff1602179055509050507ffab782eee98387fe0d957b2964e6da22a6918f525952ccad107ae25db263cc116001546040518082815260200191505060405180910390a1505050505050505050565b80600560068111156116fd57fe5b60036000838152602001908152602001600020600b0160009054906101000a900460ff16600681111561172c57fe5b14151561173857600080fd5b60036000838152602001908152602001600020600a015480341015151561175e57600080fd5b82600080336003600088815260200190815260200160002060020160006101000a81548173ffffffffffffffffffffffffffffffffffffffff021916908373ffffffffffffffffffffffffffffffffffffffff1602179055503360036000888152602001908152602001600020600c0160006101000a81548173ffffffffffffffffffffffffffffffffffffffff021916908373ffffffffffffffffffffffffffffffffffffffff160217905550600660036000888152602001908152602001600020600b0160006101000a81548160ff0219169083600681111561183f57fe5b021790555060036000878152602001908152602001600020600b0160019054906101000a900473ffffffffffffffffffffffffffffffffffffffff1673ffffffffffffffffffffffffffffffffffffffff166108fc60036000898152602001908152602001600020600a01549081150290604051600060405180830381858888f193505050501580156118d6573d6000803e3d6000fd5b507f653d56639fee6b566a5c804764e9689de38645f0b733df89a36a1b7b42173dd8866040518082815260200191505060405180910390a160036000848152602001908152602001600020600a01549150813403905060036000848152602001908152602001600020600c0160009054906101000a900473ffffffffffffffffffffffffffffffffffffffff1673ffffffffffffffffffffffffffffffffffffffff166108fc829081150290604051600060405180830381858888f193505050501580156119a8573d6000803e3d6000fd5b50505050505050565b80600160068111156119bf57fe5b60036000838152602001908152602001600020600b0160009054906101000a900460ff1660068111156119ee57fe5b1415156119fa57600080fd5b6003600083815260200190815260200160002060030160009054906101000a900473ffffffffffffffffffffffffffffffffffffffff168073ffffffffffffffffffffffffffffffffffffffff163373ffffffffffffffffffffffffffffffffffffffff16141515611a6b57600080fd5b600260036000858152602001908152602001600020600b0160006101000a81548160ff02191690836006811115611a9e57fe5b02179055507ff00b9a5725b80c54016f42114f6ed7792d22eecb116011c4afac29c57bef6c95836040518082815260200191505060405180910390a1505050565b6101c0604051908101604052806000815260200160008152602001600073ffffffffffffffffffffffffffffffffffffffff168152602001600073ffffffffffffffffffffffffffffffffffffffff1681526020016060815260200160608152602001606081526020016060815260200160008152602001606081526020016000815260200160006006811115611b7257fe5b8152602001600073ffffffffffffffffffffffffffffffffffffffff168152602001600073ffffffffffffffffffffffffffffffffffffffff1681525090565b828054600181600116156101000203166002900490600052602060002090601f016020900481019282601f10611bf357805160ff1916838001178555611c21565b82800160010185558215611c21579182015b82811115611c20578251825591602001919060010190611c05565b5b509050611c2e9190611c32565b5090565b611c5491905b80821115611c50576000816000905550600101611c38565b5090565b905600a165627a7a72305820e08471f0d2cda116efc9011588edd1b0a74e6b91c96bc19320a343501ad1544b0029",
  "source": "pragma solidity ^ 0.4.24;\n// Define a contract 'Supplychain'\ncontract SupplyChain {\n\n    // Define 'owner'\n    address owner;\n\n    // Define a variable called 'sn' for Serial Number (SN)\n    uint  sn;\n\n    // Define a variable called 'sku' for Stock Keeping Unit (SKU)\n    uint  sku;\n\n    // Define a public mapping 'items' that maps the SN to an Item.\n    mapping(uint => Item) items;\n\n    // Define a public mapping 'itemsHistory' that maps the SN to an array of TxHash, \n    // that track its journey through the supply chain -- to be sent from DApp.\n    mapping(uint => string[]) itemsHistory;\n\n    // Define enum 'State' with the following values:\n    enum State {\n        Removed,      // 0\n        CleanInspect, // 1\n        Shipped,      // 2\n        Received,     // 3\n        Inspected,    // 4\n        Repaired,     // 5\n        Purchased     // 6\n    }\n\n    State constant defaultState = State.Removed;\n\n\n\n\n    // Define a struct 'Item' with the following fields:\n    struct Item\n    {\n        uint    sku;  // Stock Keeping Unit (SKU)\n        uint    sn; // Serial Number (SN), recorded by the Shop, goes on the package, can be verified by the Consumer\n        address ownerID;  // Metamask-Ethereum address of the current owner as the product moves through 7 stages\n        address originShopID; // Metamask-Ethereum address of the Shop\n        string  originShopName; // Shop Name\n        string  originShopInformation;  // Shop Information\n        string  originShopLatitude; // Shop Latitude\n        string  originShopLongitude;  // Shop Longitude\n        uint    productID;  // Product ID potentially a combination of sn + sku       //part number?\n        string  productNotes; // Product Notes\n        uint    productPrice; // Product Price\n        State   itemState;  // Product State as represented in the enum above\n        address storeID;  // Metamask-Ethereum address of the Distributor\n        address buyerID; // Metamask-Ethereum address of the Consumer\n    }\n\n\n\n\n\n\n    // Define 7 events with the same 8 state values and accept 'sn' as input argument\n    event Removed(uint sn);\n    event CleanInspect(uint sn);\n    event Shipped(uint sn);\n    event Received(uint sn);\n    event Inspected(uint sn);\n    event Repaired(uint sn);\n    event Purchased(uint sn);\n\n\n\n\n\n\n\n\n    // Define a modifer that checks to see if msg.sender == owner of the contract\n    modifier onlyOwner() {\n        require(msg.sender == owner);\n        _;\n    }\n\n    // Define a modifer that verifies the Caller\n    modifier verifyCaller(address _address) {\n        require(msg.sender == _address);\n        _;\n    }\n\n    // Define a modifier that checks if the paid amount is sufficient to cover the price\n    modifier paidEnough(uint _price) {\n        require(msg.value >= _price);\n        _;\n    }\n\n    // Define a modifier that checks the price and refunds the remaining balance\n    modifier checkValue(uint _sn) {\n        _;\n        uint _price = items[_sn].productPrice;\n        uint amountToReturn = msg.value - _price;\n        items[_sn].buyerID.transfer(amountToReturn);\n    }\n\n\n\n\n\n\n    //  STATE MODIFIERS\n\n    // Define a modifier that checks if an item.state of a sn is Removed\n    modifier removed(uint _sn) {\n        require(items[_sn].itemState == State.Removed);\n        _;\n    }\n\n    // Define a modifier that checks if an item.state of a sn is CleanInspect\n    modifier cleaninspect(uint _sn) {\n        require(items[_sn].itemState == State.CleanInspect);\n        _;\n    }\n\n    // Define a modifier that checks if an item.state of a sn is Shipped\n    modifier shipped(uint _sn) {\n        require(items[_sn].itemState == State.Shipped);\n        _;\n    }\n\n    // Define a modifier that checks if an item.state of a sn is Received\n    modifier received(uint _sn) {\n        require(items[_sn].itemState == State.Received);\n        _;\n    }\n\n    // Define a modifier that checks if an item.state of a sn is Inspected\n    modifier inspected(uint _sn) {\n        require(items[_sn].itemState == State.CleanInspect);\n        _;\n    }\n\n    // Define a modifier that checks if an item.state of a sn is Repaired\n    modifier repaired(uint _sn) {\n        require(items[_sn].itemState == State.Repaired);\n        _;\n    }\n\n    // Define a modifier that checks if an item.state of a sn is Purchased\n    modifier purchased(uint _sn) {\n        require(items[_sn].itemState == State.Purchased);\n        _;\n    }\n\n\n\n\n\n\n\n\n\n    // In the constructor set 'owner' to the address that instantiated the contract\n    // and set 'sku' to 1\n    // and set 'sn' to 1\n    constructor() public payable {\n        owner = msg.sender;\n        sku = 1;\n        sn = 1;\n    }\n\n    // Define a function 'kill' if required\n    function kill() public {\n        if (msg.sender == owner) {\n            selfdestruct(owner);\n        }\n    }\n\n\n\n\n\n\n\n\n    // Define a function 'removeItem' that allows a shop to mark an item 'Removed'\n    function removeItem(uint _sn, address _originShopID, string memory _originShopName, string memory _originShopInformation, string memory  _originShopLatitude, string memory  _originShopLongitude, string memory  _productNotes) public\n    verifyCaller(_originShopID)\n    // only shop role can call this function?  \n\n    {\n        // Check SN is new\n        require(items[_sn].sn == 0, \"SN already exists\");\n\n\n        // Add the new item as part of Removal\n        Item memory newItem;\n        newItem.sku = sku;\n        newItem.sn = _sn;\n        //ownerID = msg.sender;\n        newItem.originShopID = msg.sender;\n        newItem.originShopName = _originShopName;\n        newItem.originShopInformation = _originShopInformation;\n        newItem.originShopLatitude = _originShopLatitude;\n        newItem.originShopLongitude = _originShopLongitude;\n        newItem.productID = _sn; // add PN?\n        newItem.productNotes = _productNotes;\n        // newItem.productPrice = 0; // placeholder = to be updated following inspection?\n        newItem.itemState = State.Removed;\n        // newItem.storeID; // placeholder\n        // newItem.buyerID; // placeholder\n\n        // Increment sku\n        sku = sku + 1;\n\n        // Update mapping\n        items[_sn] = newItem;\n\n        // Emit the appropriate event\n        emit Removed(sn);\n\n    }\n\n    // Define a function 'cleanInspectItem' that allows a shop to mark an item 'CleanInspect'\n    function cleanInspectItem(uint _sn) public\n\n    // Call modifier to check if sn has passed previous supply chain stage (is removed)\n    removed(_sn)\n\n    // Call modifier to verify caller of this function\n    verifyCaller(items[_sn].originShopID)\n\n    {\n        // Update the appropriate fields\n        items[_sn].itemState = State.CleanInspect;\n\n        // Emit the appropriate event\n        emit CleanInspect(_sn);\n\n    }\n\n    // Define a function 'shipItem' that allows a shop to mark an item 'Shipped'\n    function shipItem(uint _sn) public\n    // Call modifier to check if sn has passed previous supply chain stage\n    cleaninspect(_sn)\n\n    // Call modifier to verify caller of this function\n    verifyCaller(items[_sn].originShopID)\n\n    {\n        // Update the appropriate fields\n        items[_sn].itemState = State.Shipped;\n\n        // Emit the appropriate event\n        emit Shipped(_sn);\n\n    }\n\n    // Define a function 'receiveItem' that allows a shop to mark an item 'Received'\n    function receiveItem(uint _sn, uint _price) public\n    // Call modifier to check if sn has passed previous supply chain stage\n    shipped(_sn)\n\n    // Call modifier to verify caller of this function\n    verifyCaller(items[_sn].originShopID)\n\n    {\n        // Update the appropriate fields\n        items[_sn].itemState = State.Received;\n\n        // Emit the appropriate event\n        emit Received(_sn);\n\n    }\n\n    // Define a function 'inspectItem' that allows a shop to mark an item 'Inspected'\n    function inspectItem(uint _sn, uint _price) public\n    // Call modifier to check if sn has passed previous supply chain stage\n    received(_sn)\n\n    // Call modifier to verify caller of this function\n    verifyCaller(items[_sn].originShopID)\n\n    {\n        // Update the appropriate fields\n        items[_sn].itemState = State.Inspected;\n\n        // Emit the appropriate event\n        emit Inspected(_sn);\n\n    }\n\n    // Define a function 'repairItem' that allows a shop to mark an item 'Repaired'\n    function repairItem(uint _sn, uint _price) public\n    // Call modifier to check if sn has passed previous supply chain stage\n    inspected(_sn)\n\n    // Call modifier to verify caller of this function\n    verifyCaller(items[_sn].originShopID)\n\n    {\n        // Update the appropriate fields\n        items[_sn].itemState = State.Repaired;\n\n        // Emit the appropriate event\n        emit Repaired(_sn);\n\n    }\n\n\n    // Define a function 'buyItem' that allows the store to mark an item 'Purchased'\n    // Use the above defined modifiers to check if the item is available for sale, if the buyer has paid enough, \n    // and any excess ether sent is refunded back to the buyer\n    function buyItem(uint _sn) public payable\n    // Call modifier to check if sn has passed previous supply chain stage\n    repaired(_sn)\n\n    // Call modifer to check if buyer has paid enough\n    paidEnough(items[_sn].productPrice)\n\n    // Call modifer to send any excess ether back to buyer\n    checkValue(_sn)\n\n\n\n    {\n\n        // Update the appropriate fields - ownerID, storeID, itemState\n        items[_sn].ownerID = msg.sender;\n        items[_sn].buyerID = msg.sender;\n        items[_sn].itemState = State.Purchased;\n\n        // Transfer money to shop\n        items[_sn].storeID.transfer(items[_sn].productPrice);\n\n\n        // emit the appropriate event\n        emit Purchased(_sn);\n\n    }\n\n\n\n    // Define a function 'fetchItemBufferOne' that fetches the data\n    function fetchItemBufferOne(uint _sn) public view returns\n        (\n            uint    itemSKU,\n            uint    itemSN,\n            address ownerID,\n            address originShopID,\n            string  originShopName,\n            string  originShopInformation,\n            string  originShopLatitude,\n            string  originShopLongitude,\n            string  productNotes\n        )\n    {\n        itemSKU = items[_sn].sku;\n        itemSN = items[_sn].sn;\n        ownerID = items[_sn].ownerID;\n        originShopID = items[_sn].originShopID;\n        originShopName = items[_sn].originShopName;\n        originShopInformation = items[_sn].originShopInformation;\n        originShopLatitude = items[_sn].originShopLatitude;\n        originShopLongitude = items[_sn].originShopLongitude;\n        productNotes = items[_sn].productNotes;\n\n        return\n        (\n            itemSKU,\n            itemSN,\n            ownerID,\n            originShopID,\n            originShopName,\n            originShopInformation,\n            originShopLatitude,\n            originShopLongitude,\n            productNotes\n        );\n    }\n\n    // Define a function 'fetchItemBufferTwo' that fetches the data\n    function fetchItemBufferTwo(uint _sn) public view returns\n        (\n            uint    itemSKU,\n            uint    itemSN,\n            uint    productID,\n            string  productNotes,\n            uint    productPrice,\n            State    itemState,\n            address storeID,\n            address buyerID\n        )\n    {\n        \n        itemSKU = items[_sn].sku;\n        itemSN = items[_sn].sn;\n        productID = items[_sn].productID;\n        productNotes = items[_sn].productNotes;\n        productPrice = items[_sn].productPrice;\n        itemState = items[_sn].itemState;\n        storeID = items[_sn].storeID;\n        buyerID = items[_sn].buyerID;\n        \n        return\n        (\n            itemSKU,\n            itemSN,\n            productID,\n            productNotes,\n            productPrice,\n            itemState,\n            storeID,\n            buyerID\n        );\n    }\n}\n",
  "sourcePath": "/Users/210074718/Box Sync/blockchain/udacity/project6b/Aviation_Decentralized_Supply_Chain/contracts/scbase/SupplyChain.sol",
  "compiler": {
    "name": "solc",
    "version": "0.4.24+commit.e67f0147.Emscripten.clang"
  },
  "schemaVersion": "2.0.1",
  "updatedAt": "2019-04-04T13:19:18.316Z"
}