{
  "contractName": "SupplyChain",
  "abi": [
    {
      "constant": true,
      "inputs": [
        {
          "name": "account",
          "type": "address"
        }
      ],
      "name": "isShop",
      "outputs": [
        {
          "name": "",
          "type": "bool"
        }
      ],
      "payable": false,
      "stateMutability": "view",
      "type": "function"
    },
    {
      "constant": true,
      "inputs": [
        {
          "name": "account",
          "type": "address"
        }
      ],
      "name": "isBuyer",
      "outputs": [
        {
          "name": "",
          "type": "bool"
        }
      ],
      "payable": false,
      "stateMutability": "view",
      "type": "function"
    },
    {
      "constant": true,
      "inputs": [
        {
          "name": "account",
          "type": "address"
        }
      ],
      "name": "isStore",
      "outputs": [
        {
          "name": "",
          "type": "bool"
        }
      ],
      "payable": false,
      "stateMutability": "view",
      "type": "function"
    },
    {
      "constant": false,
      "inputs": [],
      "name": "renounceStore",
      "outputs": [],
      "payable": false,
      "stateMutability": "nonpayable",
      "type": "function"
    },
    {
      "constant": false,
      "inputs": [],
      "name": "renounceShop",
      "outputs": [],
      "payable": false,
      "stateMutability": "nonpayable",
      "type": "function"
    },
    {
      "constant": false,
      "inputs": [],
      "name": "renounceOwnership",
      "outputs": [],
      "payable": false,
      "stateMutability": "nonpayable",
      "type": "function"
    },
    {
      "constant": false,
      "inputs": [
        {
          "name": "account",
          "type": "address"
        }
      ],
      "name": "addShop",
      "outputs": [],
      "payable": false,
      "stateMutability": "nonpayable",
      "type": "function"
    },
    {
      "constant": true,
      "inputs": [],
      "name": "owner",
      "outputs": [
        {
          "name": "",
          "type": "address"
        }
      ],
      "payable": false,
      "stateMutability": "view",
      "type": "function"
    },
    {
      "constant": true,
      "inputs": [],
      "name": "isOwner",
      "outputs": [
        {
          "name": "",
          "type": "bool"
        }
      ],
      "payable": false,
      "stateMutability": "view",
      "type": "function"
    },
    {
      "constant": false,
      "inputs": [
        {
          "name": "account",
          "type": "address"
        }
      ],
      "name": "addStore",
      "outputs": [],
      "payable": false,
      "stateMutability": "nonpayable",
      "type": "function"
    },
    {
      "constant": false,
      "inputs": [
        {
          "name": "account",
          "type": "address"
        }
      ],
      "name": "addBuyer",
      "outputs": [],
      "payable": false,
      "stateMutability": "nonpayable",
      "type": "function"
    },
    {
      "constant": false,
      "inputs": [],
      "name": "renounceBuyer",
      "outputs": [],
      "payable": false,
      "stateMutability": "nonpayable",
      "type": "function"
    },
    {
      "constant": false,
      "inputs": [
        {
          "name": "newOwner",
          "type": "address"
        }
      ],
      "name": "transferOwnership",
      "outputs": [],
      "payable": false,
      "stateMutability": "nonpayable",
      "type": "function"
    },
    {
      "inputs": [],
      "payable": true,
      "stateMutability": "payable",
      "type": "constructor"
    },
    {
      "anonymous": false,
      "inputs": [
        {
          "indexed": false,
          "name": "sn",
          "type": "uint256"
        }
      ],
      "name": "Removed",
      "type": "event"
    },
    {
      "anonymous": false,
      "inputs": [
        {
          "indexed": false,
          "name": "sn",
          "type": "uint256"
        }
      ],
      "name": "CleanInspect",
      "type": "event"
    },
    {
      "anonymous": false,
      "inputs": [
        {
          "indexed": false,
          "name": "sn",
          "type": "uint256"
        }
      ],
      "name": "Shipped",
      "type": "event"
    },
    {
      "anonymous": false,
      "inputs": [
        {
          "indexed": false,
          "name": "sn",
          "type": "uint256"
        }
      ],
      "name": "Received",
      "type": "event"
    },
    {
      "anonymous": false,
      "inputs": [
        {
          "indexed": false,
          "name": "sn",
          "type": "uint256"
        }
      ],
      "name": "Inspected",
      "type": "event"
    },
    {
      "anonymous": false,
      "inputs": [
        {
          "indexed": false,
          "name": "sn",
          "type": "uint256"
        }
      ],
      "name": "Repaired",
      "type": "event"
    },
    {
      "anonymous": false,
      "inputs": [
        {
          "indexed": false,
          "name": "sn",
          "type": "uint256"
        }
      ],
      "name": "Purchased",
      "type": "event"
    },
    {
      "anonymous": false,
      "inputs": [
        {
          "indexed": true,
          "name": "oldOwner",
          "type": "address"
        },
        {
          "indexed": true,
          "name": "newOwner",
          "type": "address"
        }
      ],
      "name": "TransferOwnership",
      "type": "event"
    },
    {
      "anonymous": false,
      "inputs": [
        {
          "indexed": true,
          "name": "account",
          "type": "address"
        }
      ],
      "name": "StoreAdded",
      "type": "event"
    },
    {
      "anonymous": false,
      "inputs": [
        {
          "indexed": true,
          "name": "account",
          "type": "address"
        }
      ],
      "name": "StoreRemoved",
      "type": "event"
    },
    {
      "anonymous": false,
      "inputs": [
        {
          "indexed": true,
          "name": "account",
          "type": "address"
        }
      ],
      "name": "ShopAdded",
      "type": "event"
    },
    {
      "anonymous": false,
      "inputs": [
        {
          "indexed": true,
          "name": "account",
          "type": "address"
        }
      ],
      "name": "ShopRemoved",
      "type": "event"
    },
    {
      "anonymous": false,
      "inputs": [
        {
          "indexed": true,
          "name": "account",
          "type": "address"
        }
      ],
      "name": "BuyerAdded",
      "type": "event"
    },
    {
      "anonymous": false,
      "inputs": [
        {
          "indexed": true,
          "name": "account",
          "type": "address"
        }
      ],
      "name": "BuyerRemoved",
      "type": "event"
    },
    {
      "constant": false,
      "inputs": [
        {
          "name": "_sn",
          "type": "uint256"
        },
        {
          "name": "_originShopID",
          "type": "address"
        },
        {
          "name": "_originShopName",
          "type": "string"
        },
        {
          "name": "_originShopInformation",
          "type": "string"
        },
        {
          "name": "_originShopLatitude",
          "type": "string"
        },
        {
          "name": "_originShopLongitude",
          "type": "string"
        },
        {
          "name": "_productNotes",
          "type": "string"
        }
      ],
      "name": "removeItem",
      "outputs": [],
      "payable": false,
      "stateMutability": "nonpayable",
      "type": "function"
    },
    {
      "constant": false,
      "inputs": [
        {
          "name": "_sn",
          "type": "uint256"
        }
      ],
      "name": "cleanInspectItem",
      "outputs": [],
      "payable": false,
      "stateMutability": "nonpayable",
      "type": "function"
    },
    {
      "constant": false,
      "inputs": [
        {
          "name": "_sn",
          "type": "uint256"
        }
      ],
      "name": "shipItem",
      "outputs": [],
      "payable": false,
      "stateMutability": "nonpayable",
      "type": "function"
    },
    {
      "constant": false,
      "inputs": [
        {
          "name": "_sn",
          "type": "uint256"
        },
        {
          "name": "_price",
          "type": "uint256"
        }
      ],
      "name": "receiveItem",
      "outputs": [],
      "payable": false,
      "stateMutability": "nonpayable",
      "type": "function"
    },
    {
      "constant": false,
      "inputs": [
        {
          "name": "_sn",
          "type": "uint256"
        }
      ],
      "name": "inspectItem",
      "outputs": [],
      "payable": false,
      "stateMutability": "nonpayable",
      "type": "function"
    },
    {
      "constant": false,
      "inputs": [
        {
          "name": "_sn",
          "type": "uint256"
        }
      ],
      "name": "repairItem",
      "outputs": [],
      "payable": false,
      "stateMutability": "nonpayable",
      "type": "function"
    },
    {
      "constant": false,
      "inputs": [
        {
          "name": "_sn",
          "type": "uint256"
        }
      ],
      "name": "buyItem",
      "outputs": [],
      "payable": true,
      "stateMutability": "payable",
      "type": "function"
    },
    {
      "constant": true,
      "inputs": [
        {
          "name": "_sn",
          "type": "uint256"
        }
      ],
      "name": "fetchItemBufferOne",
      "outputs": [
        {
          "name": "itemSKU",
          "type": "uint256"
        },
        {
          "name": "itemSN",
          "type": "uint256"
        },
        {
          "name": "ownerID",
          "type": "address"
        },
        {
          "name": "originShopID",
          "type": "address"
        },
        {
          "name": "originShopName",
          "type": "string"
        },
        {
          "name": "originShopInformation",
          "type": "string"
        },
        {
          "name": "originShopLatitude",
          "type": "string"
        },
        {
          "name": "originShopLongitude",
          "type": "string"
        }
      ],
      "payable": false,
      "stateMutability": "view",
      "type": "function"
    },
    {
      "constant": true,
      "inputs": [
        {
          "name": "_sn",
          "type": "uint256"
        }
      ],
      "name": "fetchItemBufferTwo",
      "outputs": [
        {
          "name": "itemSKU",
          "type": "uint256"
        },
        {
          "name": "itemSN",
          "type": "uint256"
        },
        {
          "name": "productID",
          "type": "uint256"
        },
        {
          "name": "productNotes",
          "type": "string"
        },
        {
          "name": "productPrice",
          "type": "uint256"
        },
        {
          "name": "itemState",
          "type": "uint8"
        },
        {
          "name": "storeID",
          "type": "address"
        },
        {
          "name": "buyerID",
          "type": "address"
        }
      ],
      "payable": false,
      "stateMutability": "view",
      "type": "function"
    }
  ],
  "bytecode": "0x60806040526200001e3362000126640100000000026401000000009004565b620000383362000190640100000000026401000000009004565b6200005233620001fa640100000000026401000000009004565b33600360006101000a81548173ffffffffffffffffffffffffffffffffffffffff021916908373ffffffffffffffffffffffffffffffffffffffff160217905550600360009054906101000a900473ffffffffffffffffffffffffffffffffffffffff1673ffffffffffffffffffffffffffffffffffffffff16600073ffffffffffffffffffffffffffffffffffffffff167f5c486528ec3e3f0ea91181cff8116f02bfa350e03b8b6f12e00765adbb5af85c60405160405180910390a360016005819055506001600481905550620003bc565b6200014a816000620002646401000000000262002378179091906401000000009004565b8073ffffffffffffffffffffffffffffffffffffffff167f6599d9dd7f97ccdc3d99ab507544f9f6ebfca20c63a7e3c018da49eeaefb164a60405160405180910390a250565b620001b4816001620002646401000000000262002378179091906401000000009004565b8073ffffffffffffffffffffffffffffffffffffffff167f121731828b85b443d173e8dc86615a38927a5b1035349922533c0b02faa1103d60405160405180910390a250565b6200021e816002620002646401000000000262002378179091906401000000009004565b8073ffffffffffffffffffffffffffffffffffffffff167fd7143132cef62efb14dc187d256287bbc7e0f7ffeecf974b2ffede151ffb467c60405160405180910390a250565b600073ffffffffffffffffffffffffffffffffffffffff168173ffffffffffffffffffffffffffffffffffffffff1614151515620002a157600080fd5b620002bc828262000327640100000000026401000000009004565b151515620002c957600080fd5b60018260000160008373ffffffffffffffffffffffffffffffffffffffff1673ffffffffffffffffffffffffffffffffffffffff16815260200190815260200160002060006101000a81548160ff0219169083151502179055505050565b60008073ffffffffffffffffffffffffffffffffffffffff168273ffffffffffffffffffffffffffffffffffffffff16141515156200036557600080fd5b8260000160008373ffffffffffffffffffffffffffffffffffffffff1673ffffffffffffffffffffffffffffffffffffffff16815260200190815260200160002060009054906101000a900460ff16905092915050565b6125cc80620003cc6000396000f300608060405260043610610128576000357c0100000000000000000000000000000000000000000000000000000000900463ffffffff1680630f1a6bb61461012d5780631d0e8a4d1461015a5780632a55feec146101b557806333f28e64146102105780633ff240c21461026b57806343e5c8301461028257806366225ff914610299578063715018a6146103d657806377c45913146103ed57806378fbb04f1461064b5780637d37e8851461068e5780638287662c146106bb5780638da5cb5b146106e85780638f32d59b1461073f578063915776231461076e578063b50f60e7146107b1578063bbf89803146107e8578063c204a0cf1461082b578063dae1d27514610842578063e7fb74c7146109ed578063f2fde38b14610a0d578063f61c899a14610a50575b600080fd5b34801561013957600080fd5b5061015860048036038101908080359060200190929190505050610a7d565b005b34801561016657600080fd5b5061019b600480360381019080803573ffffffffffffffffffffffffffffffffffffffff169060200190929190505050610bab565b604051808215151515815260200191505060405180910390f35b3480156101c157600080fd5b506101f6600480360381019080803573ffffffffffffffffffffffffffffffffffffffff169060200190929190505050610bc8565b604051808215151515815260200191505060405180910390f35b34801561021c57600080fd5b50610251600480360381019080803573ffffffffffffffffffffffffffffffffffffffff169060200190929190505050610be5565b604051808215151515815260200191505060405180910390f35b34801561027757600080fd5b50610280610c02565b005b34801561028e57600080fd5b50610297610c0d565b005b3480156102a557600080fd5b506102c460048036038101908080359060200190929190505050610c18565b60405180898152602001888152602001878152602001806020018681526020018560068111156102f057fe5b60ff1681526020018473ffffffffffffffffffffffffffffffffffffffff1673ffffffffffffffffffffffffffffffffffffffff1681526020018373ffffffffffffffffffffffffffffffffffffffff1673ffffffffffffffffffffffffffffffffffffffff168152602001828103825287818151815260200191508051906020019080838360005b83811015610394578082015181840152602081019050610379565b50505050905090810190601f1680156103c15780820380516001836020036101000a031916815260200191505b50995050505050505050505060405180910390f35b3480156103e257600080fd5b506103eb610df5565b005b3480156103f957600080fd5b5061041860048036038101908080359060200190929190505050610ec9565b604051808981526020018881526020018773ffffffffffffffffffffffffffffffffffffffff1673ffffffffffffffffffffffffffffffffffffffff1681526020018673ffffffffffffffffffffffffffffffffffffffff1673ffffffffffffffffffffffffffffffffffffffff16815260200180602001806020018060200180602001858103855289818151815260200191508051906020019080838360005b838110156104d45780820151818401526020810190506104b9565b50505050905090810190601f1680156105015780820380516001836020036101000a031916815260200191505b50858103845288818151815260200191508051906020019080838360005b8381101561053a57808201518184015260208101905061051f565b50505050905090810190601f1680156105675780820380516001836020036101000a031916815260200191505b50858103835287818151815260200191508051906020019080838360005b838110156105a0578082015181840152602081019050610585565b50505050905090810190601f1680156105cd5780820380516001836020036101000a031916815260200191505b50858103825286818151815260200191508051906020019080838360005b838110156106065780820151818401526020810190506105eb565b50505050905090810190601f1680156106335780820380516001836020036101000a031916815260200191505b509c5050505050505050505050505060405180910390f35b34801561065757600080fd5b5061068c600480360381019080803573ffffffffffffffffffffffffffffffffffffffff169060200190929190505050611260565b005b34801561069a57600080fd5b506106b960048036038101908080359060200190929190505050611280565b005b3480156106c757600080fd5b506106e6600480360381019080803590602001909291905050506113ae565b005b3480156106f457600080fd5b506106fd6114dc565b604051808273ffffffffffffffffffffffffffffffffffffffff1673ffffffffffffffffffffffffffffffffffffffff16815260200191505060405180910390f35b34801561074b57600080fd5b50610754611506565b604051808215151515815260200191505060405180910390f35b34801561077a57600080fd5b506107af600480360381019080803573ffffffffffffffffffffffffffffffffffffffff16906020019092919050505061155e565b005b3480156107bd57600080fd5b506107e6600480360381019080803590602001909291908035906020019092919050505061157e565b005b3480156107f457600080fd5b50610829600480360381019080803573ffffffffffffffffffffffffffffffffffffffff1690602001909291905050506116c1565b005b34801561083757600080fd5b506108406116e1565b005b34801561084e57600080fd5b506109eb60048036038101908080359060200190929190803573ffffffffffffffffffffffffffffffffffffffff169060200190929190803590602001908201803590602001908080601f0160208091040260200160405190810160405280939291908181526020018383808284378201915050505050509192919290803590602001908201803590602001908080601f0160208091040260200160405190810160405280939291908181526020018383808284378201915050505050509192919290803590602001908201803590602001908080601f0160208091040260200160405190810160405280939291908181526020018383808284378201915050505050509192919290803590602001908201803590602001908080601f0160208091040260200160405190810160405280939291908181526020018383808284378201915050505050509192919290803590602001908201803590602001908080601f01602080910402602001604051908101604052809392919081815260200183838082843782019150505050505091929192905050506116ec565b005b610a0b60048036038101908080359060200190929190505050611b0f565b005b348015610a1957600080fd5b50610a4e600480360381019080803573ffffffffffffffffffffffffffffffffffffffff169060200190929190505050611dd0565b005b348015610a5c57600080fd5b50610a7b60048036038101908080359060200190929190505050611def565b005b8060006006811115610a8b57fe5b60066000838152602001908152602001600020600b0160009054906101000a900460ff166006811115610aba57fe5b141515610ac657600080fd5b6006600083815260200190815260200160002060030160009054906101000a900473ffffffffffffffffffffffffffffffffffffffff168073ffffffffffffffffffffffffffffffffffffffff163373ffffffffffffffffffffffffffffffffffffffff16141515610b3757600080fd5b600160066000858152602001908152602001600020600b0160006101000a81548160ff02191690836006811115610b6a57fe5b02179055507f9deb3ac1c705ed1dcd649b755d2167b29c2cc17de4f0f93c598092708230ef90836040518082815260200191505060405180910390a1505050565b6000610bc1826001611f1d90919063ffffffff16565b9050919050565b6000610bde826000611f1d90919063ffffffff16565b9050919050565b6000610bfb826002611f1d90919063ffffffff16565b9050919050565b610c0b33611fb1565b565b610c163361200b565b565b60008060006060600080600080600660008a8152602001908152602001600020600001549750600660008a8152602001908152602001600020600101549650600660008a8152602001908152602001600020600801549550600660008a81526020019081526020016000206009018054600181600116156101000203166002900480601f016020809104026020016040519081016040528092919081815260200182805460018160011615610100020316600290048015610d1a5780601f10610cef57610100808354040283529160200191610d1a565b820191906000526020600020905b815481529060010190602001808311610cfd57829003601f168201915b50505050509450600660008a8152602001908152602001600020600a01549350600660008a8152602001908152602001600020600b0160009054906101000a900460ff169250600660008a8152602001908152602001600020600b0160019054906101000a900473ffffffffffffffffffffffffffffffffffffffff169150600660008a8152602001908152602001600020600c0160009054906101000a900473ffffffffffffffffffffffffffffffffffffffff169050878787878787878797509750975097509750975097509750919395975091939597565b610dfd611506565b1515610e0857600080fd5b600073ffffffffffffffffffffffffffffffffffffffff16600360009054906101000a900473ffffffffffffffffffffffffffffffffffffffff1673ffffffffffffffffffffffffffffffffffffffff167f5c486528ec3e3f0ea91181cff8116f02bfa350e03b8b6f12e00765adbb5af85c60405160405180910390a36000600360006101000a81548173ffffffffffffffffffffffffffffffffffffffff021916908373ffffffffffffffffffffffffffffffffffffffff160217905550565b600080600080606080606080600660008a8152602001908152602001600020600001549750600660008a8152602001908152602001600020600101549650600660008a815260200190815260200160002060020160009054906101000a900473ffffffffffffffffffffffffffffffffffffffff169550600660008a815260200190815260200160002060030160009054906101000a900473ffffffffffffffffffffffffffffffffffffffff169450600660008a81526020019081526020016000206004018054600181600116156101000203166002900480601f0160208091040260200160405190810160405280929190818152602001828054600181600116156101000203166002900480156110235780601f10610ff857610100808354040283529160200191611023565b820191906000526020600020905b81548152906001019060200180831161100657829003601f168201915b50505050509350600660008a81526020019081526020016000206005018054600181600116156101000203166002900480601f0160208091040260200160405190810160405280929190818152602001828054600181600116156101000203166002900480156110d45780601f106110a9576101008083540402835291602001916110d4565b820191906000526020600020905b8154815290600101906020018083116110b757829003601f168201915b50505050509250600660008a81526020019081526020016000206006018054600181600116156101000203166002900480601f0160208091040260200160405190810160405280929190818152602001828054600181600116156101000203166002900480156111855780601f1061115a57610100808354040283529160200191611185565b820191906000526020600020905b81548152906001019060200180831161116857829003601f168201915b50505050509150600660008a81526020019081526020016000206007018054600181600116156101000203166002900480601f0160208091040260200160405190810160405280929190818152602001828054600181600116156101000203166002900480156112365780601f1061120b57610100808354040283529160200191611236565b820191906000526020600020905b81548152906001019060200180831161121957829003601f168201915b50505050509050878787878787878797509750975097509750975097509750919395975091939597565b61126933610bab565b151561127457600080fd5b61127d81612065565b50565b806003600681111561128e57fe5b60066000838152602001908152602001600020600b0160009054906101000a900460ff1660068111156112bd57fe5b1415156112c957600080fd5b6006600083815260200190815260200160002060030160009054906101000a900473ffffffffffffffffffffffffffffffffffffffff168073ffffffffffffffffffffffffffffffffffffffff163373ffffffffffffffffffffffffffffffffffffffff1614151561133a57600080fd5b600460066000858152602001908152602001600020600b0160006101000a81548160ff0219169083600681111561136d57fe5b02179055507f98995183ba0a4acedc1d558066f0c9390eaeebfb3746082a8e60c0e3844724cb836040518082815260200191505060405180910390a1505050565b80600460068111156113bc57fe5b60066000838152602001908152602001600020600b0160009054906101000a900460ff1660068111156113eb57fe5b1415156113f757600080fd5b6006600083815260200190815260200160002060030160009054906101000a900473ffffffffffffffffffffffffffffffffffffffff168073ffffffffffffffffffffffffffffffffffffffff163373ffffffffffffffffffffffffffffffffffffffff1614151561146857600080fd5b600560066000858152602001908152602001600020600b0160006101000a81548160ff0219169083600681111561149b57fe5b02179055507f867455f50213547ece031dd4e809a840833e28b077e95c01eb6180d2214baf91836040518082815260200191505060405180910390a1505050565b6000600360009054906101000a900473ffffffffffffffffffffffffffffffffffffffff16905090565b6000600360009054906101000a900473ffffffffffffffffffffffffffffffffffffffff1673ffffffffffffffffffffffffffffffffffffffff163373ffffffffffffffffffffffffffffffffffffffff1614905090565b61156733610be5565b151561157257600080fd5b61157b816120bf565b50565b816002600681111561158c57fe5b60066000838152602001908152602001600020600b0160009054906101000a900460ff1660068111156115bb57fe5b1415156115c757600080fd5b6006600084815260200190815260200160002060030160009054906101000a900473ffffffffffffffffffffffffffffffffffffffff168073ffffffffffffffffffffffffffffffffffffffff163373ffffffffffffffffffffffffffffffffffffffff1614151561163857600080fd5b61164133610bab565b151561164c57600080fd5b600360066000868152602001908152602001600020600b0160006101000a81548160ff0219169083600681111561167f57fe5b02179055507fa8142743f8f70a4c26f3691cf4ed59718381fb2f18070ec52be1f1022d855557846040518082815260200191505060405180910390a150505050565b6116ca33610bc8565b15156116d557600080fd5b6116de81612119565b50565b6116ea33612173565b565b6116f4612428565b868073ffffffffffffffffffffffffffffffffffffffff163373ffffffffffffffffffffffffffffffffffffffff1614151561172f57600080fd5b6000600660008b8152602001908152602001600020600101541415156117bd576040517f08c379a00000000000000000000000000000000000000000000000000000000081526004018080602001828103825260118152602001807f534e20616c72656164792065786973747300000000000000000000000000000081525060200191505060405180910390fd5b6005548260000181815250508882602001818152505033826060019073ffffffffffffffffffffffffffffffffffffffff16908173ffffffffffffffffffffffffffffffffffffffff168152505087826040019073ffffffffffffffffffffffffffffffffffffffff16908173ffffffffffffffffffffffffffffffffffffffff1681525050868260800181905250858260a00181905250848260c00181905250838260e00181905250600554890182610100018181525050828261012001819052506000826101600190600681111561189357fe5b908160068111156118a057fe5b8152505060016005540160058190555081600660008b8152602001908152602001600020600082015181600001556020820151816001015560408201518160020160006101000a81548173ffffffffffffffffffffffffffffffffffffffff021916908373ffffffffffffffffffffffffffffffffffffffff16021790555060608201518160030160006101000a81548173ffffffffffffffffffffffffffffffffffffffff021916908373ffffffffffffffffffffffffffffffffffffffff16021790555060808201518160040190805190602001906119829291906124fb565b5060a082015181600501908051906020019061199f9291906124fb565b5060c08201518160060190805190602001906119bc9291906124fb565b5060e08201518160070190805190602001906119d99291906124fb565b506101008201518160080155610120820151816009019080519060200190611a029291906124fb565b5061014082015181600a015561016082015181600b0160006101000a81548160ff02191690836006811115611a3357fe5b021790555061018082015181600b0160016101000a81548173ffffffffffffffffffffffffffffffffffffffff021916908373ffffffffffffffffffffffffffffffffffffffff1602179055506101a082015181600c0160006101000a81548173ffffffffffffffffffffffffffffffffffffffff021916908373ffffffffffffffffffffffffffffffffffffffff1602179055509050507ffab782eee98387fe0d957b2964e6da22a6918f525952ccad107ae25db263cc116004546040518082815260200191505060405180910390a1505050505050505050565b8060056006811115611b1d57fe5b60066000838152602001908152602001600020600b0160009054906101000a900460ff166006811115611b4c57fe5b141515611b5857600080fd5b60066000838152602001908152602001600020600a0154803410151515611b7e57600080fd5b82600080336006600088815260200190815260200160002060020160006101000a81548173ffffffffffffffffffffffffffffffffffffffff021916908373ffffffffffffffffffffffffffffffffffffffff1602179055503360066000888152602001908152602001600020600c0160006101000a81548173ffffffffffffffffffffffffffffffffffffffff021916908373ffffffffffffffffffffffffffffffffffffffff1602179055506006806000888152602001908152602001600020600b0160006101000a81548160ff02191690836006811115611c5e57fe5b021790555060066000878152602001908152602001600020600b0160019054906101000a900473ffffffffffffffffffffffffffffffffffffffff1673ffffffffffffffffffffffffffffffffffffffff166108fc60066000898152602001908152602001600020600a01549081150290604051600060405180830381858888f19350505050158015611cf5573d6000803e3d6000fd5b507f653d56639fee6b566a5c804764e9689de38645f0b733df89a36a1b7b42173dd8866040518082815260200191505060405180910390a160066000848152602001908152602001600020600a01549150813403905060066000848152602001908152602001600020600c0160009054906101000a900473ffffffffffffffffffffffffffffffffffffffff1673ffffffffffffffffffffffffffffffffffffffff166108fc829081150290604051600060405180830381858888f19350505050158015611dc7573d6000803e3d6000fd5b50505050505050565b611dd8611506565b1515611de357600080fd5b611dec816121cd565b50565b8060016006811115611dfd57fe5b60066000838152602001908152602001600020600b0160009054906101000a900460ff166006811115611e2c57fe5b141515611e3857600080fd5b6006600083815260200190815260200160002060030160009054906101000a900473ffffffffffffffffffffffffffffffffffffffff168073ffffffffffffffffffffffffffffffffffffffff163373ffffffffffffffffffffffffffffffffffffffff16141515611ea957600080fd5b600260066000858152602001908152602001600020600b0160006101000a81548160ff02191690836006811115611edc57fe5b02179055507ff00b9a5725b80c54016f42114f6ed7792d22eecb116011c4afac29c57bef6c95836040518082815260200191505060405180910390a1505050565b60008073ffffffffffffffffffffffffffffffffffffffff168273ffffffffffffffffffffffffffffffffffffffff1614151515611f5a57600080fd5b8260000160008373ffffffffffffffffffffffffffffffffffffffff1673ffffffffffffffffffffffffffffffffffffffff16815260200190815260200160002060009054906101000a900460ff16905092915050565b611fc58160026122c990919063ffffffff16565b8073ffffffffffffffffffffffffffffffffffffffff167f8a3674246878227c5067d2b007a4bacdcade1cc2e8528c08c068d1987e99119c60405160405180910390a250565b61201f8160016122c990919063ffffffff16565b8073ffffffffffffffffffffffffffffffffffffffff167fd50d62b726467f70db12c0823c62ab5a8a5e5075539f68fdfa111b2e77f203e960405160405180910390a250565b61207981600161237890919063ffffffff16565b8073ffffffffffffffffffffffffffffffffffffffff167f121731828b85b443d173e8dc86615a38927a5b1035349922533c0b02faa1103d60405160405180910390a250565b6120d381600261237890919063ffffffff16565b8073ffffffffffffffffffffffffffffffffffffffff167fd7143132cef62efb14dc187d256287bbc7e0f7ffeecf974b2ffede151ffb467c60405160405180910390a250565b61212d81600061237890919063ffffffff16565b8073ffffffffffffffffffffffffffffffffffffffff167f6599d9dd7f97ccdc3d99ab507544f9f6ebfca20c63a7e3c018da49eeaefb164a60405160405180910390a250565b6121878160006122c990919063ffffffff16565b8073ffffffffffffffffffffffffffffffffffffffff167f83fd4cbc7bc934bdfbae994ac6e72fcc0e50abd6995c1949520e761ba650d58260405160405180910390a250565b600073ffffffffffffffffffffffffffffffffffffffff168173ffffffffffffffffffffffffffffffffffffffff161415151561220957600080fd5b8073ffffffffffffffffffffffffffffffffffffffff16600360009054906101000a900473ffffffffffffffffffffffffffffffffffffffff1673ffffffffffffffffffffffffffffffffffffffff167f5c486528ec3e3f0ea91181cff8116f02bfa350e03b8b6f12e00765adbb5af85c60405160405180910390a380600360006101000a81548173ffffffffffffffffffffffffffffffffffffffff021916908373ffffffffffffffffffffffffffffffffffffffff16021790555050565b600073ffffffffffffffffffffffffffffffffffffffff168173ffffffffffffffffffffffffffffffffffffffff161415151561230557600080fd5b61230f8282611f1d565b151561231a57600080fd5b60008260000160008373ffffffffffffffffffffffffffffffffffffffff1673ffffffffffffffffffffffffffffffffffffffff16815260200190815260200160002060006101000a81548160ff0219169083151502179055505050565b600073ffffffffffffffffffffffffffffffffffffffff168173ffffffffffffffffffffffffffffffffffffffff16141515156123b457600080fd5b6123be8282611f1d565b1515156123ca57600080fd5b60018260000160008373ffffffffffffffffffffffffffffffffffffffff1673ffffffffffffffffffffffffffffffffffffffff16815260200190815260200160002060006101000a81548160ff0219169083151502179055505050565b6101c0604051908101604052806000815260200160008152602001600073ffffffffffffffffffffffffffffffffffffffff168152602001600073ffffffffffffffffffffffffffffffffffffffff16815260200160608152602001606081526020016060815260200160608152602001600081526020016060815260200160008152602001600060068111156124bb57fe5b8152602001600073ffffffffffffffffffffffffffffffffffffffff168152602001600073ffffffffffffffffffffffffffffffffffffffff1681525090565b828054600181600116156101000203166002900490600052602060002090601f016020900481019282601f1061253c57805160ff191683800117855561256a565b8280016001018555821561256a579182015b8281111561256957825182559160200191906001019061254e565b5b509050612577919061257b565b5090565b61259d91905b80821115612599576000816000905550600101612581565b5090565b905600a165627a7a723058200099bf57d1e838dee102641b3292b20bef484f64240d66466125d3144d6144940029",
  "source": "pragma solidity ^ 0.4.24;\n\nimport \"../scaccesscontrol/BuyerRole.sol\";\nimport \"../scaccesscontrol/ShopRole.sol\";\nimport \"../scaccesscontrol/StoreRole.sol\";\nimport \"../sccore/Ownable.sol\";\n\n\n// Define a contract 'Supplychain'\ncontract SupplyChain is BuyerRole,\n                        ShopRole,\n                        StoreRole,\n                        Ownable {\n\n    // Define 'owner'\n    // address owner;\n\n    // Define a variable called 'sn' for Serial Number (SN)\n    uint  sn;\n\n    // Define a variable called 'sku' for Stock Keeping Unit (SKU)\n    uint  sku;\n\n    // Define a public mapping 'items' that maps the SN to an Item.\n    mapping(uint => Item) items;\n\n    // Define a public mapping 'itemsHistory' that maps the SN to an array of TxHash, \n    // that track its journey through the supply chain -- to be sent from DApp.\n    mapping(uint => string[]) itemsHistory;\n\n    // Define enum 'State' with the following values:\n    enum State {\n        Removed,      // 0\n        CleanInspect, // 1\n        Shipped,      // 2\n        Received,     // 3\n        Inspected,    // 4\n        Repaired,     // 5\n        Purchased     // 6\n    }\n\n    State constant defaultState = State.Removed;\n\n\n\n\n    // Define a struct 'Item' with the following fields:\n    struct Item\n    {\n        uint    sku;  // Stock Keeping Unit (SKU)\n        uint    sn; // Serial Number (SN), recorded by the Shop, goes on the package, can be verified by the Consumer\n        address ownerID;  // Metamask-Ethereum address of the current owner as the product moves through 7 stages\n        address originShopID; // Metamask-Ethereum address of the Shop\n        string  originShopName; // Shop Name\n        string  originShopInformation;  // Shop Information\n        string  originShopLatitude; // Shop Latitude\n        string  originShopLongitude;  // Shop Longitude\n        uint    productID;  // Product ID potentially a combination of sn + sku       //part number?\n        string  productNotes; // Product Notes\n        uint    productPrice; // Product Price\n        State   itemState;  // Product State as represented in the enum above\n        address storeID;  // Metamask-Ethereum address of the Distributor\n        address buyerID; // Metamask-Ethereum address of the Consumer\n    }\n\n\n\n\n\n\n    // Define 7 events with the same 8 state values and accept 'sn' as input argument\n    event Removed(uint sn);\n    event CleanInspect(uint sn);\n    event Shipped(uint sn);\n    event Received(uint sn);\n    event Inspected(uint sn);\n    event Repaired(uint sn);\n    event Purchased(uint sn);\n\n\n\n\n\n\n\n\n    // Define a modifer that checks to see if msg.sender == owner of the contract\n    // modifier onlyOwner() {\n    //     require(msg.sender == owner);\n    //     _;\n    // }\n\n    // Define a modifer that verifies the Caller\n    modifier verifyCaller(address _address) {\n        require(msg.sender == _address);\n        _;\n    }\n\n    // Define a modifier that checks if the paid amount is sufficient to cover the price\n    modifier paidEnough(uint _price) {\n        require(msg.value >= _price);\n        _;\n    }\n\n    // Define a modifier that checks the price and refunds the remaining balance\n    modifier checkValue(uint _sn) {\n        _;\n        uint _price = items[_sn].productPrice;\n        uint amountToReturn = msg.value - _price;\n        items[_sn].buyerID.transfer(amountToReturn);\n    }\n\n\n\n\n\n\n    //  STATE MODIFIERS\n\n    // Define a modifier that checks if an item.state of a sn is Removed\n    modifier removed(uint _sn) {\n        require(items[_sn].itemState == State.Removed);\n        _;\n    }\n\n    // Define a modifier that checks if an item.state of a sn is CleanInspect\n    modifier cleaninspect(uint _sn) {\n        require(items[_sn].itemState == State.CleanInspect);\n        _;\n    }\n\n    // Define a modifier that checks if an item.state of a sn is Shipped\n    modifier shipped(uint _sn) {\n        require(items[_sn].itemState == State.Shipped);\n        _;\n    }\n\n    // Define a modifier that checks if an item.state of a sn is Received\n    modifier received(uint _sn) {\n        require(items[_sn].itemState == State.Received);\n        _;\n    }\n\n    // Define a modifier that checks if an item.state of a sn is Inspected\n    modifier inspected(uint _sn) {\n        require(items[_sn].itemState == State.Inspected);\n        _;\n    }\n\n    // Define a modifier that checks if an item.state of a sn is Repaired\n    modifier repaired(uint _sn) {\n        require(items[_sn].itemState == State.Repaired);\n        _;\n    }\n\n    // Define a modifier that checks if an item.state of a sn is Purchased\n    modifier purchased(uint _sn) {\n        require(items[_sn].itemState == State.Purchased);\n        _;\n    }\n\n\n\n\n\n\n\n\n\n    // In the constructor set 'owner' to the address that instantiated the contract\n    // and set 'sku' to 1\n    // and set 'sn' to 1\n    constructor() public payable {\n        // owner = msg.sender;\n        sku = 1;\n        sn = 1;\n    }\n\n    // Define a function 'kill' if required\n    // function kill() public {\n    //     if (msg.sender == owner) {\n    //         selfdestruct(owner);\n    //     }\n    // }\n\n\n\n\n\n\n\n\n    // Define a function 'removeItem' that allows a shop to mark an item 'Removed'\n    function removeItem(uint _sn, address _originShopID, string memory _originShopName, string memory _originShopInformation, string memory  _originShopLatitude, string memory  _originShopLongitude, string memory  _productNotes) public\n    verifyCaller(_originShopID)\n    // only shop role can call this function?  \n\n    {\n        // Check SN is new\n        require(items[_sn].sn == 0, \"SN already exists\");\n\n\n        // Add the new item as part of Removal\n        Item memory newItem;\n        newItem.sku = sku;\n        newItem.sn = _sn;\n        newItem.originShopID = msg.sender;\n        newItem.ownerID = _originShopID;\n        newItem.originShopName = _originShopName;\n        newItem.originShopInformation = _originShopInformation;\n        newItem.originShopLatitude = _originShopLatitude;\n        newItem.originShopLongitude = _originShopLongitude;\n        newItem.productID = _sn + sku; // add PN?\n        newItem.productNotes = _productNotes;\n        // newItem.productPrice = 0; // placeholder = to be updated following inspection?\n        newItem.itemState = State.Removed;\n        // newItem.storeID; // placeholder\n        // newItem.buyerID; // placeholder\n\n        // Increment sku\n        sku = sku + 1;\n\n        // Update mapping\n        items[_sn] = newItem;\n\n        // Emit the appropriate event\n        emit Removed(sn);\n\n    }\n\n    // Define a function 'cleanInspectItem' that allows a shop to mark an item 'CleanInspect'\n    function cleanInspectItem(uint _sn) public\n\n    // Call modifier to check if sn has passed previous supply chain stage (is removed)\n    removed(_sn)\n\n    // Call modifier to verify caller of this function\n    verifyCaller(items[_sn].originShopID)\n\n    {\n        // Update the appropriate fields\n        items[_sn].itemState = State.CleanInspect;\n\n        // Emit the appropriate event\n        emit CleanInspect(_sn);\n\n    }\n\n    // Define a function 'shipItem' that allows a shop to mark an item 'Shipped'\n    function shipItem(uint _sn) public\n    // Call modifier to check if sn has passed previous supply chain stage\n    cleaninspect(_sn)\n\n    // Call modifier to verify caller of this function\n    verifyCaller(items[_sn].originShopID)\n\n    {\n        // Update the appropriate fields\n        items[_sn].itemState = State.Shipped;\n\n        // Emit the appropriate event\n        emit Shipped(_sn);\n\n    }\n\n    // Define a function 'receiveItem' that allows a shop to mark an item 'Received'\n    function receiveItem(uint _sn, uint _price) public\n    // Call modifier to check if sn has passed previous supply chain stage\n    shipped(_sn)\n\n    // Call modifier to verify caller of this function\n    verifyCaller(items[_sn].originShopID)\n    onlyShop()\n\n    {\n        // Update the appropriate fields\n        items[_sn].itemState = State.Received;\n\n        // Emit the appropriate event\n        emit Received(_sn);\n\n    }\n\n    // Define a function 'inspectItem' that allows a shop to mark an item 'Inspected'\n    function inspectItem(uint _sn) public\n    // Call modifier to check if sn has passed previous supply chain stage\n    received(_sn)\n\n    // Call modifier to verify caller of this function\n    verifyCaller(items[_sn].originShopID)\n\n    {\n        // Update the appropriate fields\n        items[_sn].itemState = State.Inspected;\n\n        // Emit the appropriate event\n        emit Inspected(_sn);\n\n    }\n\n    // Define a function 'repairItem' that allows a shop to mark an item 'Repaired'\n    function repairItem(uint _sn) public\n    // Call modifier to check if sn has passed previous supply chain stage\n    inspected(_sn)\n\n    // Call modifier to verify caller of this function\n    verifyCaller(items[_sn].originShopID)\n\n    {\n        // Update the appropriate fields\n        items[_sn].itemState = State.Repaired;\n\n        // Emit the appropriate event\n        emit Repaired(_sn);\n\n    }\n\n\n    // Define a function 'buyItem' that allows the store to mark an item 'Purchased'\n    // Use the above defined modifiers to check if the item is available for sale, if the buyer has paid enough, \n    // and any excess ether sent is refunded back to the buyer\n    function buyItem(uint _sn) public payable\n    // Call modifier to check if sn has passed previous supply chain stage\n    repaired(_sn)\n\n    // Call modifer to check if buyer has paid enough\n    paidEnough(items[_sn].productPrice)\n\n    // Call modifer to send any excess ether back to buyer\n    checkValue(_sn)\n\n\n\n    {\n\n        // Update the appropriate fields - ownerID, storeID, itemState\n        items[_sn].ownerID = msg.sender;\n        items[_sn].buyerID = msg.sender;\n        items[_sn].itemState = State.Purchased;\n\n        // Transfer money to shop\n        items[_sn].storeID.transfer(items[_sn].productPrice);\n\n\n        // emit the appropriate event\n        emit Purchased(_sn);\n\n    }\n\n\n\n    // Define a function 'fetchItemBufferOne' that fetches the data\n    function fetchItemBufferOne(uint _sn) public view returns\n        (\n            uint    itemSKU,\n            uint    itemSN,\n            address ownerID,\n            address originShopID,\n            string  originShopName,\n            string  originShopInformation,\n            string  originShopLatitude,\n            string  originShopLongitude\n        )\n    {\n        itemSKU = items[_sn].sku;\n        itemSN = items[_sn].sn;\n        ownerID = items[_sn].ownerID;\n        originShopID = items[_sn].originShopID;\n        originShopName = items[_sn].originShopName;\n        originShopInformation = items[_sn].originShopInformation;\n        originShopLatitude = items[_sn].originShopLatitude;\n        originShopLongitude = items[_sn].originShopLongitude;\n\n        return\n        (\n            itemSKU,\n            itemSN,\n            ownerID,\n            originShopID,\n            originShopName,\n            originShopInformation,\n            originShopLatitude,\n            originShopLongitude\n        );\n    }\n\n    // Define a function 'fetchItemBufferTwo' that fetches the data\n    function fetchItemBufferTwo(uint _sn) public view returns\n        (\n            uint    itemSKU,\n            uint    itemSN,\n            uint    productID,\n            string  productNotes,\n            uint    productPrice,\n            State    itemState,\n            address storeID,\n            address buyerID\n        )\n    {\n        \n        itemSKU = items[_sn].sku;\n        itemSN = items[_sn].sn;\n        productID = items[_sn].productID;\n        productNotes = items[_sn].productNotes;\n        productPrice = items[_sn].productPrice;\n        itemState = items[_sn].itemState;\n        storeID = items[_sn].storeID;\n        buyerID = items[_sn].buyerID;\n        \n        return\n        (\n            itemSKU,\n            itemSN,\n            productID,\n            productNotes,\n            productPrice,\n            itemState,\n            storeID,\n            buyerID\n        );\n    }\n}\n",
  "sourcePath": "/Users/210074718/Box Sync/blockchain/udacity/project6b/Aviation_Decentralized_Supply_Chain/contracts/scbase/SupplyChain.sol",
  "compiler": {
    "name": "solc",
    "version": "0.4.24+commit.e67f0147.Emscripten.clang"
  },
  "schemaVersion": "2.0.1",
  "updatedAt": "2019-04-05T14:38:06.292Z"
}